{
  "_format": "hh-sol-artifact-1",
  "contractName": "TwitterX",
  "sourceName": "contracts/TwitterX.sol",
  "abi": [
    {
      "inputs": [],
      "stateMutability": "nonpayable",
      "type": "constructor"
    },
    {
      "inputs": [
        {
          "internalType": "address",
          "name": "sender",
          "type": "address"
        },
        {
          "internalType": "uint256",
          "name": "tokenId",
          "type": "uint256"
        },
        {
          "internalType": "address",
          "name": "owner",
          "type": "address"
        }
      ],
      "name": "ERC721IncorrectOwner",
      "type": "error"
    },
    {
      "inputs": [
        {
          "internalType": "address",
          "name": "operator",
          "type": "address"
        },
        {
          "internalType": "uint256",
          "name": "tokenId",
          "type": "uint256"
        }
      ],
      "name": "ERC721InsufficientApproval",
      "type": "error"
    },
    {
      "inputs": [
        {
          "internalType": "address",
          "name": "approver",
          "type": "address"
        }
      ],
      "name": "ERC721InvalidApprover",
      "type": "error"
    },
    {
      "inputs": [
        {
          "internalType": "address",
          "name": "operator",
          "type": "address"
        }
      ],
      "name": "ERC721InvalidOperator",
      "type": "error"
    },
    {
      "inputs": [
        {
          "internalType": "address",
          "name": "owner",
          "type": "address"
        }
      ],
      "name": "ERC721InvalidOwner",
      "type": "error"
    },
    {
      "inputs": [
        {
          "internalType": "address",
          "name": "receiver",
          "type": "address"
        }
      ],
      "name": "ERC721InvalidReceiver",
      "type": "error"
    },
    {
      "inputs": [
        {
          "internalType": "address",
          "name": "sender",
          "type": "address"
        }
      ],
      "name": "ERC721InvalidSender",
      "type": "error"
    },
    {
      "inputs": [
        {
          "internalType": "uint256",
          "name": "tokenId",
          "type": "uint256"
        }
      ],
      "name": "ERC721NonexistentToken",
      "type": "error"
    },
    {
      "anonymous": false,
      "inputs": [
        {
          "indexed": true,
          "internalType": "address",
          "name": "owner",
          "type": "address"
        },
        {
          "indexed": true,
          "internalType": "address",
          "name": "approved",
          "type": "address"
        },
        {
          "indexed": true,
          "internalType": "uint256",
          "name": "tokenId",
          "type": "uint256"
        }
      ],
      "name": "Approval",
      "type": "event"
    },
    {
      "anonymous": false,
      "inputs": [
        {
          "indexed": true,
          "internalType": "address",
          "name": "owner",
          "type": "address"
        },
        {
          "indexed": true,
          "internalType": "address",
          "name": "operator",
          "type": "address"
        },
        {
          "indexed": false,
          "internalType": "bool",
          "name": "approved",
          "type": "bool"
        }
      ],
      "name": "ApprovalForAll",
      "type": "event"
    },
    {
      "anonymous": false,
      "inputs": [
        {
          "indexed": false,
          "internalType": "uint256",
          "name": "_fromTokenId",
          "type": "uint256"
        },
        {
          "indexed": false,
          "internalType": "uint256",
          "name": "_toTokenId",
          "type": "uint256"
        }
      ],
      "name": "BatchMetadataUpdate",
      "type": "event"
    },
    {
      "anonymous": false,
      "inputs": [
        {
          "indexed": false,
          "internalType": "uint256",
          "name": "_tokenId",
          "type": "uint256"
        }
      ],
      "name": "MetadataUpdate",
      "type": "event"
    },
    {
      "anonymous": false,
      "inputs": [
        {
          "indexed": false,
          "internalType": "uint256",
          "name": "id",
          "type": "uint256"
        },
        {
          "indexed": false,
          "internalType": "string",
          "name": "hash",
          "type": "string"
        },
        {
          "indexed": false,
          "internalType": "uint256",
          "name": "tipAmount",
          "type": "uint256"
        },
        {
          "indexed": false,
          "internalType": "address payable",
          "name": "author",
          "type": "address"
        }
      ],
      "name": "PostCreated",
      "type": "event"
    },
    {
      "anonymous": false,
      "inputs": [
        {
          "indexed": false,
          "internalType": "uint256",
          "name": "id",
          "type": "uint256"
        },
        {
          "indexed": false,
          "internalType": "string",
          "name": "hash",
          "type": "string"
        },
        {
          "indexed": false,
          "internalType": "uint256",
          "name": "tipAmount",
          "type": "uint256"
        },
        {
          "indexed": false,
          "internalType": "address payable",
          "name": "author",
          "type": "address"
        }
      ],
      "name": "PostTipped",
      "type": "event"
    },
    {
      "anonymous": false,
      "inputs": [
        {
          "indexed": true,
          "internalType": "address",
          "name": "from",
          "type": "address"
        },
        {
          "indexed": true,
          "internalType": "address",
          "name": "to",
          "type": "address"
        },
        {
          "indexed": true,
          "internalType": "uint256",
          "name": "tokenId",
          "type": "uint256"
        }
      ],
      "name": "Transfer",
      "type": "event"
    },
    {
      "inputs": [
        {
          "internalType": "address",
          "name": "to",
          "type": "address"
        },
        {
          "internalType": "uint256",
          "name": "tokenId",
          "type": "uint256"
        }
      ],
      "name": "approve",
      "outputs": [],
      "stateMutability": "nonpayable",
      "type": "function"
    },
    {
      "inputs": [
        {
          "internalType": "address",
          "name": "owner",
          "type": "address"
        }
      ],
      "name": "balanceOf",
      "outputs": [
        {
          "internalType": "uint256",
          "name": "",
          "type": "uint256"
        }
      ],
      "stateMutability": "view",
      "type": "function"
    },
    {
      "inputs": [],
      "name": "getAllPosts",
      "outputs": [
        {
          "components": [
            {
              "internalType": "uint256",
              "name": "id",
              "type": "uint256"
            },
            {
              "internalType": "string",
              "name": "hash",
              "type": "string"
            },
            {
              "internalType": "uint256",
              "name": "tipAmount",
              "type": "uint256"
            },
            {
              "internalType": "address payable",
              "name": "author",
              "type": "address"
            }
          ],
          "internalType": "struct TwitterX.Post[]",
          "name": "_posts",
          "type": "tuple[]"
        }
      ],
      "stateMutability": "view",
      "type": "function"
    },
    {
      "inputs": [
        {
          "internalType": "uint256",
          "name": "tokenId",
          "type": "uint256"
        }
      ],
      "name": "getApproved",
      "outputs": [
        {
          "internalType": "address",
          "name": "",
          "type": "address"
        }
      ],
      "stateMutability": "view",
      "type": "function"
    },
    {
      "inputs": [],
      "name": "getMyNfts",
      "outputs": [
        {
          "internalType": "uint256[]",
          "name": "_ids",
          "type": "uint256[]"
        }
      ],
      "stateMutability": "view",
      "type": "function"
    },
    {
      "inputs": [
        {
          "internalType": "address",
          "name": "owner",
          "type": "address"
        },
        {
          "internalType": "address",
          "name": "operator",
          "type": "address"
        }
      ],
      "name": "isApprovedForAll",
      "outputs": [
        {
          "internalType": "bool",
          "name": "",
          "type": "bool"
        }
      ],
      "stateMutability": "view",
      "type": "function"
    },
    {
      "inputs": [
        {
          "internalType": "string",
          "name": "_tokenURI",
          "type": "string"
        }
      ],
      "name": "mint",
      "outputs": [
        {
          "internalType": "uint256",
          "name": "",
          "type": "uint256"
        }
      ],
      "stateMutability": "nonpayable",
      "type": "function"
    },
    {
      "inputs": [],
      "name": "name",
      "outputs": [
        {
          "internalType": "string",
          "name": "",
          "type": "string"
        }
      ],
      "stateMutability": "view",
      "type": "function"
    },
    {
      "inputs": [
        {
          "internalType": "uint256",
          "name": "tokenId",
          "type": "uint256"
        }
      ],
      "name": "ownerOf",
      "outputs": [
        {
          "internalType": "address",
          "name": "",
          "type": "address"
        }
      ],
      "stateMutability": "view",
      "type": "function"
    },
    {
      "inputs": [],
      "name": "postCount",
      "outputs": [
        {
          "internalType": "uint256",
          "name": "",
          "type": "uint256"
        }
      ],
      "stateMutability": "view",
      "type": "function"
    },
    {
      "inputs": [
        {
          "internalType": "uint256",
          "name": "",
          "type": "uint256"
        }
      ],
      "name": "posts",
      "outputs": [
        {
          "internalType": "uint256",
          "name": "id",
          "type": "uint256"
        },
        {
          "internalType": "string",
          "name": "hash",
          "type": "string"
        },
        {
          "internalType": "uint256",
          "name": "tipAmount",
          "type": "uint256"
        },
        {
          "internalType": "address payable",
          "name": "author",
          "type": "address"
        }
      ],
      "stateMutability": "view",
      "type": "function"
    },
    {
      "inputs": [
        {
          "internalType": "address",
          "name": "",
          "type": "address"
        }
      ],
      "name": "profiles",
      "outputs": [
        {
          "internalType": "uint256",
          "name": "",
          "type": "uint256"
        }
      ],
      "stateMutability": "view",
      "type": "function"
    },
    {
      "inputs": [
        {
          "internalType": "address",
          "name": "from",
          "type": "address"
        },
        {
          "internalType": "address",
          "name": "to",
          "type": "address"
        },
        {
          "internalType": "uint256",
          "name": "tokenId",
          "type": "uint256"
        }
      ],
      "name": "safeTransferFrom",
      "outputs": [],
      "stateMutability": "nonpayable",
      "type": "function"
    },
    {
      "inputs": [
        {
          "internalType": "address",
          "name": "from",
          "type": "address"
        },
        {
          "internalType": "address",
          "name": "to",
          "type": "address"
        },
        {
          "internalType": "uint256",
          "name": "tokenId",
          "type": "uint256"
        },
        {
          "internalType": "bytes",
          "name": "data",
          "type": "bytes"
        }
      ],
      "name": "safeTransferFrom",
      "outputs": [],
      "stateMutability": "nonpayable",
      "type": "function"
    },
    {
      "inputs": [
        {
          "internalType": "address",
          "name": "operator",
          "type": "address"
        },
        {
          "internalType": "bool",
          "name": "approved",
          "type": "bool"
        }
      ],
      "name": "setApprovalForAll",
      "outputs": [],
      "stateMutability": "nonpayable",
      "type": "function"
    },
    {
      "inputs": [
        {
          "internalType": "uint256",
          "name": "_id",
          "type": "uint256"
        }
      ],
      "name": "setProfile",
      "outputs": [],
      "stateMutability": "nonpayable",
      "type": "function"
    },
    {
      "inputs": [
        {
          "internalType": "bytes4",
          "name": "interfaceId",
          "type": "bytes4"
        }
      ],
      "name": "supportsInterface",
      "outputs": [
        {
          "internalType": "bool",
          "name": "",
          "type": "bool"
        }
      ],
      "stateMutability": "view",
      "type": "function"
    },
    {
      "inputs": [],
      "name": "symbol",
      "outputs": [
        {
          "internalType": "string",
          "name": "",
          "type": "string"
        }
      ],
      "stateMutability": "view",
      "type": "function"
    },
    {
      "inputs": [
        {
          "internalType": "uint256",
          "name": "_id",
          "type": "uint256"
        }
      ],
      "name": "tipPostOwner",
      "outputs": [],
      "stateMutability": "payable",
      "type": "function"
    },
    {
      "inputs": [],
      "name": "tokenCount",
      "outputs": [
        {
          "internalType": "uint256",
          "name": "",
          "type": "uint256"
        }
      ],
      "stateMutability": "view",
      "type": "function"
    },
    {
      "inputs": [
        {
          "internalType": "uint256",
          "name": "tokenId",
          "type": "uint256"
        }
      ],
      "name": "tokenURI",
      "outputs": [
        {
          "internalType": "string",
          "name": "",
          "type": "string"
        }
      ],
      "stateMutability": "view",
      "type": "function"
    },
    {
      "inputs": [
        {
          "internalType": "address",
          "name": "from",
          "type": "address"
        },
        {
          "internalType": "address",
          "name": "to",
          "type": "address"
        },
        {
          "internalType": "uint256",
          "name": "tokenId",
          "type": "uint256"
        }
      ],
      "name": "transferFrom",
      "outputs": [],
      "stateMutability": "nonpayable",
      "type": "function"
    },
    {
      "inputs": [
        {
          "internalType": "string",
          "name": "_postHash",
          "type": "string"
        }
      ],
      "name": "uploadPost",
      "outputs": [],
      "stateMutability": "nonpayable",
      "type": "function"
    }
  ],
  "bytecode": "0x60806040523480156200001157600080fd5b506040518060400160405280600f81526020017f446563656e7472617477697474657200000000000000000000000000000000008152506040518060400160405280600481526020017f444150500000000000000000000000000000000000000000000000000000000081525081600090816200008f919062000324565b508060019081620000a1919062000324565b5050506200040b565b600081519050919050565b7f4e487b7100000000000000000000000000000000000000000000000000000000600052604160045260246000fd5b7f4e487b7100000000000000000000000000000000000000000000000000000000600052602260045260246000fd5b600060028204905060018216806200012c57607f821691505b602082108103620001425762000141620000e4565b5b50919050565b60008190508160005260206000209050919050565b60006020601f8301049050919050565b600082821b905092915050565b600060088302620001ac7fffffffffffffffffffffffffffffffffffffffffffffffffffffffffffffffff826200016d565b620001b886836200016d565b95508019841693508086168417925050509392505050565b6000819050919050565b6000819050919050565b600062000205620001ff620001f984620001d0565b620001da565b620001d0565b9050919050565b6000819050919050565b6200022183620001e4565b6200023962000230826200020c565b8484546200017a565b825550505050565b600090565b6200025062000241565b6200025d81848462000216565b505050565b5b8181101562000285576200027960008262000246565b60018101905062000263565b5050565b601f821115620002d4576200029e8162000148565b620002a9846200015d565b81016020851015620002b9578190505b620002d1620002c8856200015d565b83018262000262565b50505b505050565b600082821c905092915050565b6000620002f960001984600802620002d9565b1980831691505092915050565b6000620003148383620002e6565b9150826002028217905092915050565b6200032f82620000aa565b67ffffffffffffffff8111156200034b576200034a620000b5565b5b62000357825462000113565b6200036482828562000289565b600060209050601f8311600181146200039c576000841562000387578287015190505b62000393858262000306565b86555062000403565b601f198416620003ac8662000148565b60005b82811015620003d657848901518255600182019150602085019450602081019050620003af565b86831015620003f65784890151620003f2601f891682620002e6565b8355505b6001600288020188555050505b505050505050565b61362e806200041b6000396000f3fe6080604052600436106101405760003560e01c806370a08231116100b6578063bbe156271161006f578063bbe1562714610471578063bdd05adb146104ae578063c87b56dd146104d7578063d6313c0614610514578063d85d3d2714610530578063e985e9c51461056d57610140565b806370a082311461036357806385d3cb37146103a057806395d89b41146103c95780639f181b5e146103f4578063a22cb4651461041f578063b88d4fde1461044857610140565b80630b1e7f83116101085780630b1e7f831461023e57806317906c2e1461027e57806323b872dd146102a957806330561100146102d257806342842e0e146102fd5780636352211e1461032657610140565b806301ffc9a714610145578063047b07bf1461018257806306fdde03146101ad578063081812fc146101d8578063095ea7b314610215575b600080fd5b34801561015157600080fd5b5061016c60048036038101906101679190612480565b6105aa565b60405161017991906124c8565b60405180910390f35b34801561018e57600080fd5b5061019761060b565b6040516101a491906125ab565b60405180910390f35b3480156101b957600080fd5b506101c261070e565b6040516101cf919061265d565b60405180910390f35b3480156101e457600080fd5b506101ff60048036038101906101fa91906126ab565b6107a0565b60405161020c9190612719565b60405180910390f35b34801561022157600080fd5b5061023c60048036038101906102379190612760565b6107bc565b005b34801561024a57600080fd5b50610265600480360381019061026091906126ab565b6107d2565b60405161027594939291906127d0565b60405180910390f35b34801561028a57600080fd5b506102936108aa565b6040516102a0919061281c565b60405180910390f35b3480156102b557600080fd5b506102d060048036038101906102cb9190612837565b6108b0565b005b3480156102de57600080fd5b506102e76109b2565b6040516102f49190612a08565b60405180910390f35b34801561030957600080fd5b50610324600480360381019061031f9190612837565b610b73565b005b34801561033257600080fd5b5061034d600480360381019061034891906126ab565b610b93565b60405161035a9190612719565b60405180910390f35b34801561036f57600080fd5b5061038a60048036038101906103859190612a2a565b610ba5565b604051610397919061281c565b60405180910390f35b3480156103ac57600080fd5b506103c760048036038101906103c291906126ab565b610c5f565b005b3480156103d557600080fd5b506103de610d1c565b6040516103eb919061265d565b60405180910390f35b34801561040057600080fd5b50610409610dae565b604051610416919061281c565b60405180910390f35b34801561042b57600080fd5b5061044660048036038101906104419190612a83565b610db4565b005b34801561045457600080fd5b5061046f600480360381019061046a9190612bf8565b610dca565b005b34801561047d57600080fd5b5061049860048036038101906104939190612a2a565b610de7565b6040516104a5919061281c565b60405180910390f35b3480156104ba57600080fd5b506104d560048036038101906104d09190612d1c565b610dff565b005b3480156104e357600080fd5b506104fe60048036038101906104f991906126ab565b610fac565b60405161050b919061265d565b60405180910390f35b61052e600480360381019061052991906126ab565b6110bf565b005b34801561053c57600080fd5b5061055760048036038101906105529190612d1c565b6113d9565b604051610564919061281c565b60405180910390f35b34801561057957600080fd5b50610594600480360381019061058f9190612d65565b611420565b6040516105a191906124c8565b60405180910390f35b6000634906490660e01b7bffffffffffffffffffffffffffffffffffffffffffffffffffffffff1916827bffffffffffffffffffffffffffffffffffffffffffffffffffffffff191614806106045750610603826114b4565b5b9050919050565b606061061633610ba5565b67ffffffffffffffff81111561062f5761062e612acd565b5b60405190808252806020026020018201604052801561065d5781602001602082028036833780820191505090505b509050600080600754905060005b81811015610708573373ffffffffffffffffffffffffffffffffffffffff1661069f60018361069a9190612dd4565b610b93565b73ffffffffffffffffffffffffffffffffffffffff16036106f5576001816106c79190612dd4565b8484815181106106da576106d9612e08565b5b60200260200101818152505082806106f190612e37565b9350505b808061070090612e37565b91505061066b565b50505090565b60606000805461071d90612eae565b80601f016020809104026020016040519081016040528092919081815260200182805461074990612eae565b80156107965780601f1061076b57610100808354040283529160200191610796565b820191906000526020600020905b81548152906001019060200180831161077957829003601f168201915b5050505050905090565b60006107ab82611596565b506107b58261161e565b9050919050565b6107ce82826107c961165b565b611663565b5050565b60096020528060005260406000206000915090508060000154908060010180546107fb90612eae565b80601f016020809104026020016040519081016040528092919081815260200182805461082790612eae565b80156108745780601f1061084957610100808354040283529160200191610874565b820191906000526020600020905b81548152906001019060200180831161085757829003601f168201915b5050505050908060020154908060030160009054906101000a900473ffffffffffffffffffffffffffffffffffffffff16905084565b60085481565b600073ffffffffffffffffffffffffffffffffffffffff168273ffffffffffffffffffffffffffffffffffffffff16036109225760006040517f64a0ae920000000000000000000000000000000000000000000000000000000081526004016109199190612719565b60405180910390fd5b6000610936838361093161165b565b611675565b90508373ffffffffffffffffffffffffffffffffffffffff168173ffffffffffffffffffffffffffffffffffffffff16146109ac578382826040517f64283d7b0000000000000000000000000000000000000000000000000000000081526004016109a393929190612edf565b60405180910390fd5b50505050565b606060085467ffffffffffffffff8111156109d0576109cf612acd565b5b604051908082528060200260200182016040528015610a0957816020015b6109f66123d6565b8152602001906001900390816109ee5790505b50905060005b8151811015610b6f5760096000600183610a299190612dd4565b815260200190815260200160002060405180608001604052908160008201548152602001600182018054610a5c90612eae565b80601f0160208091040260200160405190810160405280929190818152602001828054610a8890612eae565b8015610ad55780601f10610aaa57610100808354040283529160200191610ad5565b820191906000526020600020905b815481529060010190602001808311610ab857829003601f168201915b50505050508152602001600282015481526020016003820160009054906101000a900473ffffffffffffffffffffffffffffffffffffffff1673ffffffffffffffffffffffffffffffffffffffff1673ffffffffffffffffffffffffffffffffffffffff1681525050828281518110610b5157610b50612e08565b5b60200260200101819052508080610b6790612e37565b915050610a0f565b5090565b610b8e83838360405180602001604052806000815250610dca565b505050565b6000610b9e82611596565b9050919050565b60008073ffffffffffffffffffffffffffffffffffffffff168273ffffffffffffffffffffffffffffffffffffffff1603610c185760006040517f89c62b64000000000000000000000000000000000000000000000000000000008152600401610c0f9190612719565b60405180910390fd5b600360008373ffffffffffffffffffffffffffffffffffffffff1673ffffffffffffffffffffffffffffffffffffffff168152602001908152602001600020549050919050565b3373ffffffffffffffffffffffffffffffffffffffff16610c7f82610b93565b73ffffffffffffffffffffffffffffffffffffffff1614610cd5576040517f08c379a0000000000000000000000000000000000000000000000000000000008152600401610ccc90612f88565b60405180910390fd5b80600a60003373ffffffffffffffffffffffffffffffffffffffff1673ffffffffffffffffffffffffffffffffffffffff1681526020019081526020016000208190555050565b606060018054610d2b90612eae565b80601f0160208091040260200160405190810160405280929190818152602001828054610d5790612eae565b8015610da45780601f10610d7957610100808354040283529160200191610da4565b820191906000526020600020905b815481529060010190602001808311610d8757829003601f168201915b5050505050905090565b60075481565b610dc6610dbf61165b565b838361188f565b5050565b610dd58484846108b0565b610de1848484846119fe565b50505050565b600a6020528060005260406000206000915090505481565b6000610e0a33610ba5565b11610e4a576040517f08c379a0000000000000000000000000000000000000000000000000000000008152600401610e4190612ff4565b60405180910390fd5b6000815111610e8e576040517f08c379a0000000000000000000000000000000000000000000000000000000008152600401610e8590613060565b60405180910390fd5b60086000815480929190610ea190612e37565b919050555060405180608001604052806008548152602001828152602001600081526020013373ffffffffffffffffffffffffffffffffffffffff16815250600960006008548152602001908152602001600020600082015181600001556020820151816001019081610f14919061322c565b506040820151816002015560608201518160030160006101000a81548173ffffffffffffffffffffffffffffffffffffffff021916908373ffffffffffffffffffffffffffffffffffffffff1602179055509050507fc66336337a24e513f909b3b25119854dba8385d51307dbc7d31d1b2805e19c7e60085482600033604051610fa19493929190613339565b60405180910390a150565b6060610fb782611596565b506000600660008481526020019081526020016000208054610fd890612eae565b80601f016020809104026020016040519081016040528092919081815260200182805461100490612eae565b80156110515780601f1061102657610100808354040283529160200191611051565b820191906000526020600020905b81548152906001019060200180831161103457829003601f168201915b505050505090506000611062611bb5565b905060008151036110775781925050506110ba565b6000825111156110ac5780826040516020016110949291906133c1565b604051602081830303815290604052925050506110ba565b6110b584611bcc565b925050505b919050565b6000811180156110d157506008548111155b611110576040517f08c379a000000000000000000000000000000000000000000000000000000000815260040161110790613431565b60405180910390fd5b6000600960008381526020019081526020016000206040518060800160405290816000820154815260200160018201805461114a90612eae565b80601f016020809104026020016040519081016040528092919081815260200182805461117690612eae565b80156111c35780601f10611198576101008083540402835291602001916111c3565b820191906000526020600020905b8154815290600101906020018083116111a657829003601f168201915b50505050508152602001600282015481526020016003820160009054906101000a900473ffffffffffffffffffffffffffffffffffffffff1673ffffffffffffffffffffffffffffffffffffffff1673ffffffffffffffffffffffffffffffffffffffff168152505090503373ffffffffffffffffffffffffffffffffffffffff16816060015173ffffffffffffffffffffffffffffffffffffffff16036112a0576040517f08c379a00000000000000000000000000000000000000000000000000000000081526004016112979061349d565b60405180910390fd5b806060015173ffffffffffffffffffffffffffffffffffffffff166108fc349081150290604051600060405180830381858888f193505050501580156112ea573d6000803e3d6000fd5b5034816040018181516112fd9190612dd4565b915081815250508060096000848152602001908152602001600020600082015181600001556020820151816001019081611337919061322c565b506040820151816002015560608201518160030160006101000a81548173ffffffffffffffffffffffffffffffffffffffff021916908373ffffffffffffffffffffffffffffffffffffffff1602179055509050507f20988fe475351e75813672abada1dddb7ac67cbbeb81e61e1160b8329d8cdf1c828260200151836040015184606001516040516113cd94939291906127d0565b60405180910390a15050565b6000600760008154809291906113ee90612e37565b91905055506113ff33600754611c35565b61140b60075483611c53565b611416600754610c5f565b6007549050919050565b6000600560008473ffffffffffffffffffffffffffffffffffffffff1673ffffffffffffffffffffffffffffffffffffffff16815260200190815260200160002060008373ffffffffffffffffffffffffffffffffffffffff1673ffffffffffffffffffffffffffffffffffffffff16815260200190815260200160002060009054906101000a900460ff16905092915050565b60007f80ac58cd000000000000000000000000000000000000000000000000000000007bffffffffffffffffffffffffffffffffffffffffffffffffffffffff1916827bffffffffffffffffffffffffffffffffffffffffffffffffffffffff1916148061157f57507f5b5e139f000000000000000000000000000000000000000000000000000000007bffffffffffffffffffffffffffffffffffffffffffffffffffffffff1916827bffffffffffffffffffffffffffffffffffffffffffffffffffffffff1916145b8061158f575061158e82611caf565b5b9050919050565b6000806115a283611d19565b9050600073ffffffffffffffffffffffffffffffffffffffff168173ffffffffffffffffffffffffffffffffffffffff160361161557826040517f7e27328900000000000000000000000000000000000000000000000000000000815260040161160c919061281c565b60405180910390fd5b80915050919050565b60006004600083815260200190815260200160002060009054906101000a900473ffffffffffffffffffffffffffffffffffffffff169050919050565b600033905090565b6116708383836001611d56565b505050565b60008061168184611d19565b9050600073ffffffffffffffffffffffffffffffffffffffff168373ffffffffffffffffffffffffffffffffffffffff16146116c3576116c2818486611f1b565b5b600073ffffffffffffffffffffffffffffffffffffffff168173ffffffffffffffffffffffffffffffffffffffff161461175457611705600085600080611d56565b6001600360008373ffffffffffffffffffffffffffffffffffffffff1673ffffffffffffffffffffffffffffffffffffffff168152602001908152602001600020600082825403925050819055505b600073ffffffffffffffffffffffffffffffffffffffff168573ffffffffffffffffffffffffffffffffffffffff16146117d7576001600360008773ffffffffffffffffffffffffffffffffffffffff1673ffffffffffffffffffffffffffffffffffffffff168152602001908152602001600020600082825401925050819055505b846002600086815260200190815260200160002060006101000a81548173ffffffffffffffffffffffffffffffffffffffff021916908373ffffffffffffffffffffffffffffffffffffffff160217905550838573ffffffffffffffffffffffffffffffffffffffff168273ffffffffffffffffffffffffffffffffffffffff167fddf252ad1be2c89b69c2b068fc378daa952ba7f163c4a11628f55a4df523b3ef60405160405180910390a4809150509392505050565b600073ffffffffffffffffffffffffffffffffffffffff168273ffffffffffffffffffffffffffffffffffffffff160361190057816040517f5b08ba180000000000000000000000000000000000000000000000000000000081526004016118f79190612719565b60405180910390fd5b80600560008573ffffffffffffffffffffffffffffffffffffffff1673ffffffffffffffffffffffffffffffffffffffff16815260200190815260200160002060008473ffffffffffffffffffffffffffffffffffffffff1673ffffffffffffffffffffffffffffffffffffffff16815260200190815260200160002060006101000a81548160ff0219169083151502179055508173ffffffffffffffffffffffffffffffffffffffff168373ffffffffffffffffffffffffffffffffffffffff167f17307eab39ab6107e8899845ad3d59bd9653f200f220920489ca2b5937696c31836040516119f191906124c8565b60405180910390a3505050565b60008373ffffffffffffffffffffffffffffffffffffffff163b1115611baf578273ffffffffffffffffffffffffffffffffffffffff1663150b7a02611a4261165b565b8685856040518563ffffffff1660e01b8152600401611a649493929190613512565b6020604051808303816000875af1925050508015611aa057506040513d601f19601f82011682018060405250810190611a9d9190613573565b60015b611b24573d8060008114611ad0576040519150601f19603f3d011682016040523d82523d6000602084013e611ad5565b606091505b506000815103611b1c57836040517f64a0ae92000000000000000000000000000000000000000000000000000000008152600401611b139190612719565b60405180910390fd5b805181602001fd5b63150b7a0260e01b7bffffffffffffffffffffffffffffffffffffffffffffffffffffffff1916817bffffffffffffffffffffffffffffffffffffffffffffffffffffffff191614611bad57836040517f64a0ae92000000000000000000000000000000000000000000000000000000008152600401611ba49190612719565b60405180910390fd5b505b50505050565b606060405180602001604052806000815250905090565b6060611bd782611596565b506000611be2611bb5565b90506000815111611c025760405180602001604052806000815250611c2d565b80611c0c84611fdf565b604051602001611c1d9291906133c1565b6040516020818303038152906040525b915050919050565b611c4f8282604051806020016040528060008152506120ad565b5050565b80600660008481526020019081526020016000209081611c73919061322c565b507ff8e1a15aba9398e019f0b49df1a4fde98ee17ae345cb5f6b5e2c27f5033e8ce782604051611ca3919061281c565b60405180910390a15050565b60007f01ffc9a7000000000000000000000000000000000000000000000000000000007bffffffffffffffffffffffffffffffffffffffffffffffffffffffff1916827bffffffffffffffffffffffffffffffffffffffffffffffffffffffff1916149050919050565b60006002600083815260200190815260200160002060009054906101000a900473ffffffffffffffffffffffffffffffffffffffff169050919050565b8080611d8f5750600073ffffffffffffffffffffffffffffffffffffffff168273ffffffffffffffffffffffffffffffffffffffff1614155b15611ec3576000611d9f84611596565b9050600073ffffffffffffffffffffffffffffffffffffffff168373ffffffffffffffffffffffffffffffffffffffff1614158015611e0a57508273ffffffffffffffffffffffffffffffffffffffff168173ffffffffffffffffffffffffffffffffffffffff1614155b8015611e1d5750611e1b8184611420565b155b15611e5f57826040517fa9fbf51f000000000000000000000000000000000000000000000000000000008152600401611e569190612719565b60405180910390fd5b8115611ec157838573ffffffffffffffffffffffffffffffffffffffff168273ffffffffffffffffffffffffffffffffffffffff167f8c5be1e5ebec7d5bd14f71427d1e84f3dd0314c0f7b2291e5b200ac8c7c3b92560405160405180910390a45b505b836004600085815260200190815260200160002060006101000a81548173ffffffffffffffffffffffffffffffffffffffff021916908373ffffffffffffffffffffffffffffffffffffffff16021790555050505050565b611f268383836120c9565b611fda57600073ffffffffffffffffffffffffffffffffffffffff168373ffffffffffffffffffffffffffffffffffffffff1603611f9b57806040517f7e273289000000000000000000000000000000000000000000000000000000008152600401611f92919061281c565b60405180910390fd5b81816040517f177e802f000000000000000000000000000000000000000000000000000000008152600401611fd19291906135a0565b60405180910390fd5b505050565b606060006001611fee8461218a565b01905060008167ffffffffffffffff81111561200d5761200c612acd565b5b6040519080825280601f01601f19166020018201604052801561203f5781602001600182028036833780820191505090505b509050600082602001820190505b6001156120a2578080600190039150507f3031323334353637383961626364656600000000000000000000000000000000600a86061a8153600a8581612096576120956135c9565b5b0494506000850361204d575b819350505050919050565b6120b783836122dd565b6120c460008484846119fe565b505050565b60008073ffffffffffffffffffffffffffffffffffffffff168373ffffffffffffffffffffffffffffffffffffffff161415801561218157508273ffffffffffffffffffffffffffffffffffffffff168473ffffffffffffffffffffffffffffffffffffffff16148061214257506121418484611420565b5b8061218057508273ffffffffffffffffffffffffffffffffffffffff166121688361161e565b73ffffffffffffffffffffffffffffffffffffffff16145b5b90509392505050565b600080600090507a184f03e93ff9f4daa797ed6e38ed64bf6a1f01000000000000000083106121e8577a184f03e93ff9f4daa797ed6e38ed64bf6a1f01000000000000000083816121de576121dd6135c9565b5b0492506040810190505b6d04ee2d6d415b85acef81000000008310612225576d04ee2d6d415b85acef8100000000838161221b5761221a6135c9565b5b0492506020810190505b662386f26fc10000831061225457662386f26fc10000838161224a576122496135c9565b5b0492506010810190505b6305f5e100831061227d576305f5e1008381612273576122726135c9565b5b0492506008810190505b61271083106122a2576127108381612298576122976135c9565b5b0492506004810190505b606483106122c557606483816122bb576122ba6135c9565b5b0492506002810190505b600a83106122d4576001810190505b80915050919050565b600073ffffffffffffffffffffffffffffffffffffffff168273ffffffffffffffffffffffffffffffffffffffff160361234f5760006040517f64a0ae920000000000000000000000000000000000000000000000000000000081526004016123469190612719565b60405180910390fd5b600061235d83836000611675565b9050600073ffffffffffffffffffffffffffffffffffffffff168173ffffffffffffffffffffffffffffffffffffffff16146123d15760006040517f73c6ac6e0000000000000000000000000000000000000000000000000000000081526004016123c89190612719565b60405180910390fd5b505050565b6040518060800160405280600081526020016060815260200160008152602001600073ffffffffffffffffffffffffffffffffffffffff1681525090565b6000604051905090565b600080fd5b600080fd5b60007fffffffff0000000000000000000000000000000000000000000000000000000082169050919050565b61245d81612428565b811461246857600080fd5b50565b60008135905061247a81612454565b92915050565b6000602082840312156124965761249561241e565b5b60006124a48482850161246b565b91505092915050565b60008115159050919050565b6124c2816124ad565b82525050565b60006020820190506124dd60008301846124b9565b92915050565b600081519050919050565b600082825260208201905092915050565b6000819050602082019050919050565b6000819050919050565b6125228161250f565b82525050565b60006125348383612519565b60208301905092915050565b6000602082019050919050565b6000612558826124e3565b61256281856124ee565b935061256d836124ff565b8060005b8381101561259e5781516125858882612528565b975061259083612540565b925050600181019050612571565b5085935050505092915050565b600060208201905081810360008301526125c5818461254d565b905092915050565b600081519050919050565b600082825260208201905092915050565b60005b838110156126075780820151818401526020810190506125ec565b60008484015250505050565b6000601f19601f8301169050919050565b600061262f826125cd565b61263981856125d8565b93506126498185602086016125e9565b61265281612613565b840191505092915050565b600060208201905081810360008301526126778184612624565b905092915050565b6126888161250f565b811461269357600080fd5b50565b6000813590506126a58161267f565b92915050565b6000602082840312156126c1576126c061241e565b5b60006126cf84828501612696565b91505092915050565b600073ffffffffffffffffffffffffffffffffffffffff82169050919050565b6000612703826126d8565b9050919050565b612713816126f8565b82525050565b600060208201905061272e600083018461270a565b92915050565b61273d816126f8565b811461274857600080fd5b50565b60008135905061275a81612734565b92915050565b600080604083850312156127775761277661241e565b5b60006127858582860161274b565b925050602061279685828601612696565b9150509250929050565b6127a98161250f565b82525050565b60006127ba826126d8565b9050919050565b6127ca816127af565b82525050565b60006080820190506127e560008301876127a0565b81810360208301526127f78186612624565b905061280660408301856127a0565b61281360608301846127c1565b95945050505050565b600060208201905061283160008301846127a0565b92915050565b6000806000606084860312156128505761284f61241e565b5b600061285e8682870161274b565b935050602061286f8682870161274b565b925050604061288086828701612696565b9150509250925092565b600081519050919050565b600082825260208201905092915050565b6000819050602082019050919050565b600082825260208201905092915050565b60006128d2826125cd565b6128dc81856128b6565b93506128ec8185602086016125e9565b6128f581612613565b840191505092915050565b612909816127af565b82525050565b60006080830160008301516129276000860182612519565b506020830151848203602086015261293f82826128c7565b91505060408301516129546040860182612519565b5060608301516129676060860182612900565b508091505092915050565b600061297e838361290f565b905092915050565b6000602082019050919050565b600061299e8261288a565b6129a88185612895565b9350836020820285016129ba856128a6565b8060005b858110156129f657848403895281516129d78582612972565b94506129e283612986565b925060208a019950506001810190506129be565b50829750879550505050505092915050565b60006020820190508181036000830152612a228184612993565b905092915050565b600060208284031215612a4057612a3f61241e565b5b6000612a4e8482850161274b565b91505092915050565b612a60816124ad565b8114612a6b57600080fd5b50565b600081359050612a7d81612a57565b92915050565b60008060408385031215612a9a57612a9961241e565b5b6000612aa88582860161274b565b9250506020612ab985828601612a6e565b9150509250929050565b600080fd5b600080fd5b7f4e487b7100000000000000000000000000000000000000000000000000000000600052604160045260246000fd5b612b0582612613565b810181811067ffffffffffffffff82111715612b2457612b23612acd565b5b80604052505050565b6000612b37612414565b9050612b438282612afc565b919050565b600067ffffffffffffffff821115612b6357612b62612acd565b5b612b6c82612613565b9050602081019050919050565b82818337600083830152505050565b6000612b9b612b9684612b48565b612b2d565b905082815260208101848484011115612bb757612bb6612ac8565b5b612bc2848285612b79565b509392505050565b600082601f830112612bdf57612bde612ac3565b5b8135612bef848260208601612b88565b91505092915050565b60008060008060808587031215612c1257612c1161241e565b5b6000612c208782880161274b565b9450506020612c318782880161274b565b9350506040612c4287828801612696565b925050606085013567ffffffffffffffff811115612c6357612c62612423565b5b612c6f87828801612bca565b91505092959194509250565b600067ffffffffffffffff821115612c9657612c95612acd565b5b612c9f82612613565b9050602081019050919050565b6000612cbf612cba84612c7b565b612b2d565b905082815260208101848484011115612cdb57612cda612ac8565b5b612ce6848285612b79565b509392505050565b600082601f830112612d0357612d02612ac3565b5b8135612d13848260208601612cac565b91505092915050565b600060208284031215612d3257612d3161241e565b5b600082013567ffffffffffffffff811115612d5057612d4f612423565b5b612d5c84828501612cee565b91505092915050565b60008060408385031215612d7c57612d7b61241e565b5b6000612d8a8582860161274b565b9250506020612d9b8582860161274b565b9150509250929050565b7f4e487b7100000000000000000000000000000000000000000000000000000000600052601160045260246000fd5b6000612ddf8261250f565b9150612dea8361250f565b9250828201905080821115612e0257612e01612da5565b5b92915050565b7f4e487b7100000000000000000000000000000000000000000000000000000000600052603260045260246000fd5b6000612e428261250f565b91507fffffffffffffffffffffffffffffffffffffffffffffffffffffffffffffffff8203612e7457612e73612da5565b5b600182019050919050565b7f4e487b7100000000000000000000000000000000000000000000000000000000600052602260045260246000fd5b60006002820490506001821680612ec657607f821691505b602082108103612ed957612ed8612e7f565b5b50919050565b6000606082019050612ef4600083018661270a565b612f0160208301856127a0565b612f0e604083018461270a565b949350505050565b7f4d757374206f776e20746865206e667420796f752077616e7420746f2073657460008201527f20617320796f75722070726f66696c652e000000000000000000000000000000602082015250565b6000612f726031836125d8565b9150612f7d82612f16565b604082019050919050565b60006020820190508181036000830152612fa181612f65565b9050919050565b7f4d757374206f776e2061206e667420746f20706f737400000000000000000000600082015250565b6000612fde6016836125d8565b9150612fe982612fa8565b602082019050919050565b6000602082019050818103600083015261300d81612fd1565b9050919050565b7f43616e6e6f74207061737320656d707479206861736800000000000000000000600082015250565b600061304a6016836125d8565b915061305582613014565b602082019050919050565b600060208201905081810360008301526130798161303d565b9050919050565b60008190508160005260206000209050919050565b60006020601f8301049050919050565b600082821b905092915050565b6000600883026130e27fffffffffffffffffffffffffffffffffffffffffffffffffffffffffffffffff826130a5565b6130ec86836130a5565b95508019841693508086168417925050509392505050565b6000819050919050565b600061312961312461311f8461250f565b613104565b61250f565b9050919050565b6000819050919050565b6131438361310e565b61315761314f82613130565b8484546130b2565b825550505050565b600090565b61316c61315f565b61317781848461313a565b505050565b5b8181101561319b57613190600082613164565b60018101905061317d565b5050565b601f8211156131e0576131b181613080565b6131ba84613095565b810160208510156131c9578190505b6131dd6131d585613095565b83018261317c565b50505b505050565b600082821c905092915050565b6000613203600019846008026131e5565b1980831691505092915050565b600061321c83836131f2565b9150826002028217905092915050565b613235826125cd565b67ffffffffffffffff81111561324e5761324d612acd565b5b6132588254612eae565b61326382828561319f565b600060209050601f8311600181146132965760008415613284578287015190505b61328e8582613210565b8655506132f6565b601f1984166132a486613080565b60005b828110156132cc578489015182556001820191506020850194506020810190506132a7565b868310156132e957848901516132e5601f8916826131f2565b8355505b6001600288020188555050505b505050505050565b6000819050919050565b600061332361331e613319846132fe565b613104565b61250f565b9050919050565b61333381613308565b82525050565b600060808201905061334e60008301876127a0565b81810360208301526133608186612624565b905061336f604083018561332a565b61337c60608301846127c1565b95945050505050565b600081905092915050565b600061339b826125cd565b6133a58185613385565b93506133b58185602086016125e9565b80840191505092915050565b60006133cd8285613390565b91506133d98284613390565b91508190509392505050565b7f496e76616c696400000000000000000000000000000000000000000000000000600082015250565b600061341b6007836125d8565b9150613426826133e5565b602082019050919050565b6000602082019050818103600083015261344a8161340e565b9050919050565b7f43616e742074697020796f757220706f73740000000000000000000000000000600082015250565b60006134876012836125d8565b915061349282613451565b602082019050919050565b600060208201905081810360008301526134b68161347a565b9050919050565b600081519050919050565b600082825260208201905092915050565b60006134e4826134bd565b6134ee81856134c8565b93506134fe8185602086016125e9565b61350781612613565b840191505092915050565b6000608082019050613527600083018761270a565b613534602083018661270a565b61354160408301856127a0565b818103606083015261355381846134d9565b905095945050505050565b60008151905061356d81612454565b92915050565b6000602082840312156135895761358861241e565b5b60006135978482850161355e565b91505092915050565b60006040820190506135b5600083018561270a565b6135c260208301846127a0565b9392505050565b7f4e487b7100000000000000000000000000000000000000000000000000000000600052601260045260246000fdfea2646970667358221220ab90180934d307653a3d1781ec847a506fd4213462894026825c59a1136b77a264736f6c63430008140033",
  "linkReferences": {},
  "deployedLinkReferences": {}
}